:100000000C9434000C943E000C943E000C943E0082
:100010000C943E000C943E000C943E000C943E0068
:100020000C943E000C943E000C943E000C943E0058
:100030000C943E000C943E000C943E000C943E0048
:100040000C943E000C943E000C943E000C943E0038
:100050000C943E000C943E000C943E000C943E0028
:100060000C943E000C943E0011241FBECFEFD8E04C
:10007000DEBFCDBF0E9459000C9471000C940000AB
:100080001092C50080E18093C400E0ECF0E0808134
:1000900082608083E1EC80818860808380818061E0
:1000A000808308959091C00095FFFCCF8093C60097
:1000B00008950E94400088E40E94520089E60E9450
:1000C000520081E20E9452008AE00E9452002FEF0B
:1000D00089E698E1215080409040E1F700C000009F
:0600E000EACFF894FFCF07
:00000001FF
