:100000000C9434000C9446000C9446000C9446006A
:100010000C9446000C9446000C9446000C94460048
:100020000C9446000C9446000C9446000C94460038
:100030000C9446000C9446000C9446000C94460028
:100040000C9446000C9446000C9448000C94460016
:100050000C9446000C9446000C9446000C94460008
:100060000C9446000C94460011241FBECFEFD8E03C
:10007000DEBFCDBF21E0A0E0B1E001C01D92A13004
:10008000B207E1F70E946B000C9482000C94000010
:100090008F938091C600809300018F9118951092E4
:1000A000C50080E18093C400E0ECF0E080818260D4
:1000B0008083E1EC8081886080838081806180839F
:1000C00080818068808308959091C00095FFFCCF67
:1000D0008093C60008950E944F007894809100019B
:1000E000811531F0809100010E946400109200019E
:1000F0002FEF81EE94E0215080409040E1F700C066
:080100000000ECCFF894FFCFE2
:00000001FF
